{
  "contractName": "EasyPropertyDeals",
  "abi": [
    {
      "anonymous": false,
      "inputs": [
        {
          "indexed": false,
          "internalType": "uint256",
          "name": "propertyId",
          "type": "uint256"
        },
        {
          "indexed": false,
          "internalType": "address",
          "name": "winner",
          "type": "address"
        },
        {
          "indexed": false,
          "internalType": "uint256",
          "name": "winningBid",
          "type": "uint256"
        }
      ],
      "name": "AuctionEnded",
      "type": "event"
    },
    {
      "anonymous": false,
      "inputs": [
        {
          "indexed": false,
          "internalType": "uint256",
          "name": "propertyId",
          "type": "uint256"
        },
        {
          "indexed": false,
          "internalType": "uint256",
          "name": "startingPrice",
          "type": "uint256"
        },
        {
          "indexed": false,
          "internalType": "uint256",
          "name": "auctionEndTime",
          "type": "uint256"
        }
      ],
      "name": "AuctionStarted",
      "type": "event"
    },
    {
      "anonymous": false,
      "inputs": [
        {
          "indexed": false,
          "internalType": "uint256",
          "name": "propertyPrice",
          "type": "uint256"
        },
        {
          "indexed": false,
          "internalType": "uint256",
          "name": "msgValue",
          "type": "uint256"
        },
        {
          "indexed": false,
          "internalType": "address",
          "name": "owner",
          "type": "address"
        }
      ],
      "name": "DebugInfo",
      "type": "event"
    },
    {
      "anonymous": false,
      "inputs": [
        {
          "indexed": false,
          "internalType": "uint256",
          "name": "propertyId",
          "type": "uint256"
        },
        {
          "indexed": false,
          "internalType": "address",
          "name": "bidder",
          "type": "address"
        },
        {
          "indexed": false,
          "internalType": "uint256",
          "name": "amount",
          "type": "uint256"
        }
      ],
      "name": "NewHighestBid",
      "type": "event"
    },
    {
      "anonymous": false,
      "inputs": [
        {
          "indexed": false,
          "internalType": "uint256",
          "name": "propertyId",
          "type": "uint256"
        },
        {
          "indexed": false,
          "internalType": "address",
          "name": "from",
          "type": "address"
        },
        {
          "indexed": false,
          "internalType": "address",
          "name": "to",
          "type": "address"
        }
      ],
      "name": "OwnershipTransferred",
      "type": "event"
    },
    {
      "anonymous": false,
      "inputs": [
        {
          "indexed": false,
          "internalType": "uint256",
          "name": "propertyId",
          "type": "uint256"
        },
        {
          "indexed": false,
          "internalType": "address",
          "name": "buyer",
          "type": "address"
        },
        {
          "indexed": false,
          "internalType": "uint256",
          "name": "amount",
          "type": "uint256"
        }
      ],
      "name": "PaymentReceived",
      "type": "event"
    },
    {
      "anonymous": false,
      "inputs": [
        {
          "indexed": false,
          "internalType": "uint256",
          "name": "propertyId",
          "type": "uint256"
        },
        {
          "indexed": false,
          "internalType": "uint256",
          "name": "newPrice",
          "type": "uint256"
        }
      ],
      "name": "PriceChanged",
      "type": "event"
    },
    {
      "anonymous": false,
      "inputs": [
        {
          "indexed": false,
          "internalType": "uint256",
          "name": "propertyId",
          "type": "uint256"
        },
        {
          "indexed": false,
          "internalType": "address",
          "name": "owner",
          "type": "address"
        },
        {
          "indexed": false,
          "internalType": "uint256",
          "name": "price",
          "type": "uint256"
        }
      ],
      "name": "PropertyListed",
      "type": "event"
    },
    {
      "inputs": [
        {
          "internalType": "uint256",
          "name": "",
          "type": "uint256"
        }
      ],
      "name": "properties",
      "outputs": [
        {
          "internalType": "uint256",
          "name": "id",
          "type": "uint256"
        },
        {
          "internalType": "address",
          "name": "owner",
          "type": "address"
        },
        {
          "internalType": "uint256",
          "name": "price",
          "type": "uint256"
        },
        {
          "internalType": "bool",
          "name": "isListed",
          "type": "bool"
        },
        {
          "internalType": "bool",
          "name": "isAuctionStarted",
          "type": "bool"
        },
        {
          "internalType": "uint256",
          "name": "auctionEndTime",
          "type": "uint256"
        },
        {
          "internalType": "address",
          "name": "highestBidder",
          "type": "address"
        },
        {
          "internalType": "uint256",
          "name": "highestBid",
          "type": "uint256"
        }
      ],
      "stateMutability": "view",
      "type": "function",
      "constant": true
    },
    {
      "inputs": [
        {
          "internalType": "uint256",
          "name": "",
          "type": "uint256"
        }
      ],
      "name": "propertyBids",
      "outputs": [
        {
          "internalType": "uint256",
          "name": "amount",
          "type": "uint256"
        },
        {
          "internalType": "address",
          "name": "bidder",
          "type": "address"
        }
      ],
      "stateMutability": "view",
      "type": "function",
      "constant": true
    },
    {
      "inputs": [],
      "name": "propertyCounter",
      "outputs": [
        {
          "internalType": "uint256",
          "name": "",
          "type": "uint256"
        }
      ],
      "stateMutability": "view",
      "type": "function",
      "constant": true
    },
    {
      "inputs": [
        {
          "internalType": "uint256",
          "name": "_price",
          "type": "uint256"
        }
      ],
      "name": "listProperty",
      "outputs": [],
      "stateMutability": "nonpayable",
      "type": "function"
    },
    {
      "inputs": [
        {
          "internalType": "uint256",
          "name": "_propertyId",
          "type": "uint256"
        },
        {
          "internalType": "uint256",
          "name": "_propertyPrice",
          "type": "uint256"
        }
      ],
      "name": "buyProperty",
      "outputs": [],
      "stateMutability": "payable",
      "type": "function",
      "payable": true
    },
    {
      "inputs": [
        {
          "internalType": "uint256",
          "name": "_propertyId",
          "type": "uint256"
        },
        {
          "internalType": "uint256",
          "name": "_newPrice",
          "type": "uint256"
        }
      ],
      "name": "changePrice",
      "outputs": [],
      "stateMutability": "nonpayable",
      "type": "function"
    },
    {
      "inputs": [
        {
          "internalType": "uint256",
          "name": "_propertyId",
          "type": "uint256"
        },
        {
          "internalType": "uint256",
          "name": "_startingPrice",
          "type": "uint256"
        },
        {
          "internalType": "uint256",
          "name": "_duration",
          "type": "uint256"
        }
      ],
      "name": "startAuction",
      "outputs": [],
      "stateMutability": "nonpayable",
      "type": "function"
    },
    {
      "inputs": [
        {
          "internalType": "uint256",
          "name": "_propertyId",
          "type": "uint256"
        },
        {
          "internalType": "uint256",
          "name": "_bidPrice",
          "type": "uint256"
        }
      ],
      "name": "bid",
      "outputs": [],
      "stateMutability": "payable",
      "type": "function",
      "payable": true
    },
    {
      "inputs": [
        {
          "internalType": "uint256",
          "name": "_propertyId",
          "type": "uint256"
        }
      ],
      "name": "getHighestBid",
      "outputs": [
        {
          "internalType": "uint256",
          "name": "",
          "type": "uint256"
        },
        {
          "internalType": "address",
          "name": "",
          "type": "address"
        }
      ],
      "stateMutability": "view",
      "type": "function",
      "constant": true
    },
    {
      "inputs": [
        {
          "internalType": "uint256",
          "name": "_propertyId",
          "type": "uint256"
        }
      ],
      "name": "endAuction",
      "outputs": [],
      "stateMutability": "nonpayable",
      "type": "function"
    },
    {
      "inputs": [
        {
          "internalType": "uint256",
          "name": "_propertyId",
          "type": "uint256"
        },
        {
          "internalType": "uint256",
          "name": "_decrement",
          "type": "uint256"
        },
        {
          "internalType": "uint256",
          "name": "_interval",
          "type": "uint256"
        }
      ],
      "name": "autoPriceAdjust",
      "outputs": [],
      "stateMutability": "nonpayable",
      "type": "function"
    }
  ],
  "bytecode": "0x60806040526000805534801561001457600080fd5b506124f8806100246000396000f3fe60806040526004361061009c5760003560e01c8063a772c92711610064578063a772c9271461018b578063b3de019c146101a7578063b6aee1cf146101d0578063b9a2de3a146101f9578063d090e47e14610222578063f7b108081461024d5761009c565b80631a0d672f146100a15780633c0ac0ab146100df578063598647f8146101085780638f2886441461012457806391e078bb14610162575b600080fd5b3480156100ad57600080fd5b506100c860048036038101906100c391906117f1565b610291565b6040516100d69291906120d8565b60405180910390f35b3480156100eb57600080fd5b5061010660048036038101906101019190611856565b6102d5565b005b610122600480360381019061011d919061181a565b610509565b005b34801561013057600080fd5b5061014b600480360381019061014691906117f1565b61097a565b6040516101599291906120d8565b60405180910390f35b34801561016e57600080fd5b5061018960048036038101906101849190611856565b6109d4565b005b6101a560048036038101906101a0919061181a565b610bfb565b005b3480156101b357600080fd5b506101ce60048036038101906101c9919061181a565b610f02565b005b3480156101dc57600080fd5b506101f760048036038101906101f291906117f1565b6110a8565b005b34801561020557600080fd5b50610220600480360381019061021b91906117f1565b6112c0565b005b34801561022e57600080fd5b50610237611734565b60405161024491906120bd565b60405180910390f35b34801561025957600080fd5b50610274600480360381019061026f91906117f1565b61173a565b6040516102889897969594939291906121a6565b60405180910390f35b60026020528060005260406000206000915090508060000154908060010160009054906101000a900473ffffffffffffffffffffffffffffffffffffffff16905082565b823373ffffffffffffffffffffffffffffffffffffffff166001600083815260200190815260200160002060010160009054906101000a900473ffffffffffffffffffffffffffffffffffffffff1673ffffffffffffffffffffffffffffffffffffffff161461037a576040517f08c379a000000000000000000000000000000000000000000000000000000000815260040161037190611f7d565b60405180910390fd5b836001600082815260200190815260200160002060030160009054906101000a900460ff166103de576040517f08c379a00000000000000000000000000000000000000000000000000000000081526004016103d59061207d565b60405180910390fd5b60008411610421576040517f08c379a00000000000000000000000000000000000000000000000000000000081526004016104189061203d565b60405180910390fd5b60008311610464576040517f08c379a000000000000000000000000000000000000000000000000000000000815260040161045b90611fdd565b60405180910390fd5b600060016000878152602001908152602001600020905060008482600401544261048e9190612376565b61049891906122eb565b866104a3919061231c565b82600201546104b29190612376565b90506000811115610500578082600201819055507f8aa4fa52648a6d15edce8a179c792c86f3719d0cc3c572cf90f91948f0f2cb6887826040516104f7929190612224565b60405180910390a15b50505050505050565b816001600082815260200190815260200160002060030160019054906101000a900460ff1661056d576040517f08c379a000000000000000000000000000000000000000000000000000000000815260040161056490611f3d565b60405180910390fd5b8260016000828152602001908152602001600020600401544211156105c7576040517f08c379a00000000000000000000000000000000000000000000000000000000081526004016105be90611f9d565b60405180910390fd5b60006001600086815260200190815260200160002090508060010160009054906101000a900473ffffffffffffffffffffffffffffffffffffffff1673ffffffffffffffffffffffffffffffffffffffff163373ffffffffffffffffffffffffffffffffffffffff161415610671576040517f08c379a000000000000000000000000000000000000000000000000000000000815260040161066890611e9d565b60405180910390fd5b8060050160009054906101000a900473ffffffffffffffffffffffffffffffffffffffff1673ffffffffffffffffffffffffffffffffffffffff163373ffffffffffffffffffffffffffffffffffffffff161415610704576040517f08c379a00000000000000000000000000000000000000000000000000000000081526004016106fb90611f5d565b60405180910390fd5b6002600086815260200190815260200160002060000154841161075c576040517f08c379a00000000000000000000000000000000000000000000000000000000081526004016107539061201d565b60405180910390fd5b600073ffffffffffffffffffffffffffffffffffffffff166002600087815260200190815260200160002060010160009054906101000a900473ffffffffffffffffffffffffffffffffffffffff1673ffffffffffffffffffffffffffffffffffffffff161461085a576002600086815260200190815260200160002060010160009054906101000a900473ffffffffffffffffffffffffffffffffffffffff1673ffffffffffffffffffffffffffffffffffffffff166108fc60026000888152602001908152602001600020600001549081150290604051600060405180830381858888f19350505050158015610858573d6000803e3d6000fd5b505b338160050160006101000a81548173ffffffffffffffffffffffffffffffffffffffff021916908373ffffffffffffffffffffffffffffffffffffffff16021790555034816006018190555060405180604001604052808581526020013373ffffffffffffffffffffffffffffffffffffffff16815250600260008781526020019081526020016000206000820151816000015560208201518160010160006101000a81548173ffffffffffffffffffffffffffffffffffffffff021916908373ffffffffffffffffffffffffffffffffffffffff1602179055509050507ff13cb67d4c8841d2c893b242b7d61382d8e3bb53c5c58a8584106e74e8c4721b85338660405161096b9392919061216f565b60405180910390a15050505050565b60008060026000848152602001908152602001600020600001546002600085815260200190815260200160002060010160009054906101000a900473ffffffffffffffffffffffffffffffffffffffff1691509150915091565b823373ffffffffffffffffffffffffffffffffffffffff166001600083815260200190815260200160002060010160009054906101000a900473ffffffffffffffffffffffffffffffffffffffff1673ffffffffffffffffffffffffffffffffffffffff1614610a79576040517f08c379a0000000000000000000000000000000000000000000000000000000008152600401610a7090611f7d565b60405180910390fd5b836001600082815260200190815260200160002060030160009054906101000a900460ff16610add576040517f08c379a0000000000000000000000000000000000000000000000000000000008152600401610ad49061207d565b60405180910390fd5b60008411610b20576040517f08c379a0000000000000000000000000000000000000000000000000000000008152600401610b179061209d565b60405180910390fd5b60008311610b63576040517f08c379a0000000000000000000000000000000000000000000000000000000008152600401610b5a90611ffd565b60405180910390fd5b600060016000878152602001908152602001600020905060018160030160016101000a81548160ff0219169083151502179055508481600201819055508342610bac9190612295565b81600401819055507f44c53be110c6aa83aa83cd02e351ed172359268272ee1b5d31c0fe48db35c6c786868360040154604051610beb9392919061224d565b60405180910390a1505050505050565b816001600082815260200190815260200160002060030160009054906101000a900460ff16610c5f576040517f08c379a0000000000000000000000000000000000000000000000000000000008152600401610c569061207d565b60405180910390fd5b60006001600085815260200190815260200160002090508060010160009054906101000a900473ffffffffffffffffffffffffffffffffffffffff1673ffffffffffffffffffffffffffffffffffffffff163373ffffffffffffffffffffffffffffffffffffffff161415610d09576040517f08c379a0000000000000000000000000000000000000000000000000000000008152600401610d0090611edd565b60405180910390fd5b828314610d4b576040517f08c379a0000000000000000000000000000000000000000000000000000000008152600401610d4290611ebd565b60405180910390fd5b80600201548314610d91576040517f08c379a0000000000000000000000000000000000000000000000000000000008152600401610d8890611f1d565b60405180910390fd5b8060010160009054906101000a900473ffffffffffffffffffffffffffffffffffffffff1673ffffffffffffffffffffffffffffffffffffffff166108fc349081150290604051600060405180830381858888f19350505050158015610dfb573d6000803e3d6000fd5b5060008160010160009054906101000a900473ffffffffffffffffffffffffffffffffffffffff169050338260010160006101000a81548173ffffffffffffffffffffffffffffffffffffffff021916908373ffffffffffffffffffffffffffffffffffffffff16021790555060008260030160006101000a81548160ff0219169083151502179055507f4d3f6d68b42e1e039d6e7323b2b8bdeaf223f453882ce17a5984f4d6aabbdb33853334604051610eb89392919061216f565b60405180910390a17f16b85f49bf01212961345d3016c9a531894accf62eb7680f2045d79185cc0ec0858233604051610ef393929190612101565b60405180910390a15050505050565b813373ffffffffffffffffffffffffffffffffffffffff166001600083815260200190815260200160002060010160009054906101000a900473ffffffffffffffffffffffffffffffffffffffff1673ffffffffffffffffffffffffffffffffffffffff1614610fa7576040517f08c379a0000000000000000000000000000000000000000000000000000000008152600401610f9e90611f7d565b60405180910390fd5b826001600082815260200190815260200160002060030160009054906101000a900460ff1661100b576040517f08c379a00000000000000000000000000000000000000000000000000000000081526004016110029061207d565b60405180910390fd5b6000831161104e576040517f08c379a000000000000000000000000000000000000000000000000000000000815260040161104590611efd565b60405180910390fd5b8260016000868152602001908152602001600020600201819055507f8aa4fa52648a6d15edce8a179c792c86f3719d0cc3c572cf90f91948f0f2cb68848460405161109a929190612224565b60405180910390a150505050565b600081116110eb576040517f08c379a00000000000000000000000000000000000000000000000000000000081526004016110e290611efd565b60405180910390fd5b6000808154809291906110fd90612404565b919050555060405180610100016040528060005481526020013373ffffffffffffffffffffffffffffffffffffffff16815260200182815260200160011515815260200160001515815260200160008152602001600073ffffffffffffffffffffffffffffffffffffffff168152602001600081525060016000805481526020019081526020016000206000820151816000015560208201518160010160006101000a81548173ffffffffffffffffffffffffffffffffffffffff021916908373ffffffffffffffffffffffffffffffffffffffff1602179055506040820151816002015560608201518160030160006101000a81548160ff02191690831515021790555060808201518160030160016101000a81548160ff02191690831515021790555060a0820151816004015560c08201518160050160006101000a81548173ffffffffffffffffffffffffffffffffffffffff021916908373ffffffffffffffffffffffffffffffffffffffff16021790555060e082015181600601559050507f23fb658c1698b92f5fe511a079c17ecf7965cbc3f1b873328c67e2c3c0820f1f60005433836040516112b59392919061216f565b60405180910390a150565b806001600082815260200190815260200160002060030160019054906101000a900460ff16611324576040517f08c379a000000000000000000000000000000000000000000000000000000000815260040161131b90611f3d565b60405180910390fd5b81600160008281526020019081526020016000206004015442111561137e576040517f08c379a000000000000000000000000000000000000000000000000000000000815260040161137590611f9d565b60405180910390fd5b60006001600085815260200190815260200160002090508060010160009054906101000a900473ffffffffffffffffffffffffffffffffffffffff1673ffffffffffffffffffffffffffffffffffffffff163373ffffffffffffffffffffffffffffffffffffffff1614611427576040517f08c379a000000000000000000000000000000000000000000000000000000000815260040161141e9061205d565b60405180910390fd5b806004015442101561146e576040517f08c379a000000000000000000000000000000000000000000000000000000000815260040161146590611fbd565b60405180910390fd5b600073ffffffffffffffffffffffffffffffffffffffff168160050160009054906101000a900473ffffffffffffffffffffffffffffffffffffffff1673ffffffffffffffffffffffffffffffffffffffff1614156115265760008160030160006101000a81548160ff0219169083151502179055507fd2aa34a4fdbbc6dff6a3e56f46e0f3ae2a31d7785ff3487aa5c95c642acea5018460008060405161151893929190612138565b60405180910390a15061172f565b8060010160009054906101000a900473ffffffffffffffffffffffffffffffffffffffff1673ffffffffffffffffffffffffffffffffffffffff166108fc82600601549081150290604051600060405180830381858888f19350505050158015611594573d6000803e3d6000fd5b5060008160010160009054906101000a900473ffffffffffffffffffffffffffffffffffffffff1690508160050160009054906101000a900473ffffffffffffffffffffffffffffffffffffffff168260010160006101000a81548173ffffffffffffffffffffffffffffffffffffffff021916908373ffffffffffffffffffffffffffffffffffffffff16021790555060008260030160006101000a81548160ff02191690831515021790555060008260050160006101000a81548173ffffffffffffffffffffffffffffffffffffffff021916908373ffffffffffffffffffffffffffffffffffffffff160217905550600082600601819055507fd2aa34a4fdbbc6dff6a3e56f46e0f3ae2a31d7785ff3487aa5c95c642acea50185826000546040516116c59392919061216f565b60405180910390a17f16b85f49bf01212961345d3016c9a531894accf62eb7680f2045d79185cc0ec085828460010160009054906101000a900473ffffffffffffffffffffffffffffffffffffffff1660405161172493929190612101565b60405180910390a150505b505050565b60005481565b60016020528060005260406000206000915090508060000154908060010160009054906101000a900473ffffffffffffffffffffffffffffffffffffffff16908060020154908060030160009054906101000a900460ff16908060030160019054906101000a900460ff16908060040154908060050160009054906101000a900473ffffffffffffffffffffffffffffffffffffffff16908060060154905088565b6000813590506117eb816124ab565b92915050565b60006020828403121561180357600080fd5b6000611811848285016117dc565b91505092915050565b6000806040838503121561182d57600080fd5b600061183b858286016117dc565b925050602061184c858286016117dc565b9150509250929050565b60008060006060848603121561186b57600080fd5b6000611879868287016117dc565b935050602061188a868287016117dc565b925050604061189b868287016117dc565b9150509250925092565b6118ae816123aa565b82525050565b6118bd816123bc565b82525050565b6118cc816123f2565b82525050565b60006118df601883612284565b91507f4f776e65722063616e6e6f7420706c61636520612062696400000000000000006000830152602082019050919050565b600061191f602c83612284565b91507f53656e742076616c756520646f6573206e6f74206d617463682074686520707260008301527f6f706572747920707269636500000000000000000000000000000000000000006020830152604082019050919050565b6000611985602383612284565b91507f4f776e65722063616e6e6f7420627579207468656972206f776e2070726f706560008301527f72747900000000000000000000000000000000000000000000000000000000006020830152604082019050919050565b60006119eb601f83612284565b91507f5072696365206d7573742062652067726561746572207468616e207a65726f006000830152602082019050919050565b6000611a2b602183612284565b91507f496e636f72726563742070726f70657274792070726963652070726f7669646560008301527f64000000000000000000000000000000000000000000000000000000000000006020830152604082019050919050565b6000611a91601f83612284565b91507f50726f7065727479206973206e6f7420696e2061756374696f6e206d6f6465006000830152602082019050919050565b6000611ad1602283612284565b91507f596f752061726520616c7265616479207468652068696768657374206269646460008301527f65720000000000000000000000000000000000000000000000000000000000006020830152604082019050919050565b6000611b37601683612284565b91507f4e6f74207468652070726f7065727479206f776e6572000000000000000000006000830152602082019050919050565b6000611b77601183612284565b91507f41756374696f6e2068617320656e6465640000000000000000000000000000006000830152602082019050919050565b6000611bb7601983612284565b91507f41756374696f6e20686173206e6f7420656e64656420796574000000000000006000830152602082019050919050565b6000611bf7602283612284565b91507f496e74657276616c206d7573742062652067726561746572207468616e207a6560008301527f726f0000000000000000000000000000000000000000000000000000000000006020830152604082019050919050565b6000611c5d602a83612284565b91507f41756374696f6e206475726174696f6e206d757374206265206772656174657260008301527f207468616e207a65726f000000000000000000000000000000000000000000006020830152604082019050919050565b6000611cc3602f83612284565b91507f426964206d75737420626520686967686572207468616e20746865206375727260008301527f656e7420686967686573742062696400000000000000000000000000000000006020830152604082019050919050565b6000611d29602383612284565b91507f44656372656d656e74206d7573742062652067726561746572207468616e207a60008301527f65726f00000000000000000000000000000000000000000000000000000000006020830152604082019050919050565b6000611d8f602b83612284565b91507f4f6e6c79207468652070726f7065727479206f776e65722063616e20656e642060008301527f7468652061756374696f6e0000000000000000000000000000000000000000006020830152604082019050919050565b6000611df5601683612284565b91507f50726f7065727479206973206e6f74206c6973746564000000000000000000006000830152602082019050919050565b6000611e35602883612284565b91507f5374617274696e67207072696365206d7573742062652067726561746572207460008301527f68616e207a65726f0000000000000000000000000000000000000000000000006020830152604082019050919050565b611e97816123e8565b82525050565b60006020820190508181036000830152611eb6816118d2565b9050919050565b60006020820190508181036000830152611ed681611912565b9050919050565b60006020820190508181036000830152611ef681611978565b9050919050565b60006020820190508181036000830152611f16816119de565b9050919050565b60006020820190508181036000830152611f3681611a1e565b9050919050565b60006020820190508181036000830152611f5681611a84565b9050919050565b60006020820190508181036000830152611f7681611ac4565b9050919050565b60006020820190508181036000830152611f9681611b2a565b9050919050565b60006020820190508181036000830152611fb681611b6a565b9050919050565b60006020820190508181036000830152611fd681611baa565b9050919050565b60006020820190508181036000830152611ff681611bea565b9050919050565b6000602082019050818103600083015261201681611c50565b9050919050565b6000602082019050818103600083015261203681611cb6565b9050919050565b6000602082019050818103600083015261205681611d1c565b9050919050565b6000602082019050818103600083015261207681611d82565b9050919050565b6000602082019050818103600083015261209681611de8565b9050919050565b600060208201905081810360008301526120b681611e28565b9050919050565b60006020820190506120d26000830184611e8e565b92915050565b60006040820190506120ed6000830185611e8e565b6120fa60208301846118a5565b9392505050565b60006060820190506121166000830186611e8e565b61212360208301856118a5565b61213060408301846118a5565b949350505050565b600060608201905061214d6000830186611e8e565b61215a60208301856118a5565b61216760408301846118c3565b949350505050565b60006060820190506121846000830186611e8e565b61219160208301856118a5565b61219e6040830184611e8e565b949350505050565b6000610100820190506121bc600083018b611e8e565b6121c9602083018a6118a5565b6121d66040830189611e8e565b6121e360608301886118b4565b6121f060808301876118b4565b6121fd60a0830186611e8e565b61220a60c08301856118a5565b61221760e0830184611e8e565b9998505050505050505050565b60006040820190506122396000830185611e8e565b6122466020830184611e8e565b9392505050565b60006060820190506122626000830186611e8e565b61226f6020830185611e8e565b61227c6040830184611e8e565b949350505050565b600082825260208201905092915050565b60006122a0826123e8565b91506122ab836123e8565b9250827fffffffffffffffffffffffffffffffffffffffffffffffffffffffffffffffff038211156122e0576122df61244d565b5b828201905092915050565b60006122f6826123e8565b9150612301836123e8565b9250826123115761231061247c565b5b828204905092915050565b6000612327826123e8565b9150612332836123e8565b9250817fffffffffffffffffffffffffffffffffffffffffffffffffffffffffffffffff048311821515161561236b5761236a61244d565b5b828202905092915050565b6000612381826123e8565b915061238c836123e8565b92508282101561239f5761239e61244d565b5b828203905092915050565b60006123b5826123c8565b9050919050565b60008115159050919050565b600073ffffffffffffffffffffffffffffffffffffffff82169050919050565b6000819050919050565b60006123fd826123e8565b9050919050565b600061240f826123e8565b91507fffffffffffffffffffffffffffffffffffffffffffffffffffffffffffffffff8214156124425761244161244d565b5b600182019050919050565b7f4e487b7100000000000000000000000000000000000000000000000000000000600052601160045260246000fd5b7f4e487b7100000000000000000000000000000000000000000000000000000000600052601260045260246000fd5b6124b4816123e8565b81146124bf57600080fd5b5056fea26469706673582212208aed640248edb0aa737e424d82da0604140a51324573b888a5471ee3fb85276364736f6c63430008000033",
  "immutableReferences": {},
  "source": "// SPDX-License-Identifier: MIT\r\npragma solidity ^0.8.0;\r\n\r\ncontract EasyPropertyDeals {\r\n\r\n   // Property struct\r\n    struct Property {\r\n        uint256 id;\r\n        address owner;\r\n        uint256 price;\r\n        bool isListed;\r\n        bool isAuctionStarted;\r\n        uint256 auctionEndTime;\r\n        address highestBidder;\r\n        uint256 highestBid;\r\n    }\r\n\r\n    uint256 public propertyCounter = 0;\r\n    mapping(uint256 => Property) public properties;\r\n\r\n    event PropertyListed(uint256 propertyId, address owner, uint256 price);\r\n    event PaymentReceived(uint256 propertyId, address buyer, uint256 amount);\r\n    event OwnershipTransferred(uint256 propertyId, address from, address to);\r\n    event PriceChanged(uint256 propertyId, uint256 newPrice);\r\n    event AuctionStarted(\r\n        uint256 propertyId,\r\n        uint256 startingPrice,\r\n        uint256 auctionEndTime\r\n    );\r\n    event NewHighestBid(uint256 propertyId, address bidder, uint256 amount);\r\n    event AuctionEnded(uint256 propertyId, address winner, uint256 winningBid);\r\n\r\n    modifier onlyOwner(uint256 _propertyId) {\r\n        require(\r\n            properties[_propertyId].owner == msg.sender,\r\n            \"Not the property owner\"\r\n        );\r\n        _;\r\n    }\r\n\r\n    modifier isListed(uint256 _propertyId) {\r\n        require(properties[_propertyId].isListed, \"Property is not listed\");\r\n        _;\r\n    }\r\n\r\n\r\n   modifier validPayment(uint256 _propertyId) {\r\n        \r\n        uint256 price = properties[_propertyId].price;\r\n\r\n        require(msg.value >= price, \"Insufficient payment amount \");\r\n        require(msg.value <= price, \"Overpayment not allowed\");\r\n        _;\r\n    }\r\n\r\n\r\n    modifier isAuctionStarted(uint256 _propertyId) {\r\n        require(\r\n            properties[_propertyId].isAuctionStarted,\r\n            \"Property is not in auction mode\"\r\n        );\r\n        _;\r\n    }\r\n\r\n    modifier auctionActive(uint256 _propertyId) {\r\n        require(\r\n            block.timestamp <= properties[_propertyId].auctionEndTime,\r\n            \"Auction has ended\"\r\n        );\r\n        _;\r\n    }\r\n\r\n    modifier auctionEnded(uint256 _propertyId) {\r\n        require(\r\n            block.timestamp > properties[_propertyId].auctionEndTime,\r\n            \"Auction is still active\"\r\n        );\r\n        _;\r\n    }\r\n\r\n    /// @dev Function to list a property for sale\r\n    function listProperty(uint256 _price) public {\r\n        require(_price > 0, \"Price must be greater than zero\");\r\n\r\n        propertyCounter++;\r\n        properties[propertyCounter] = Property({\r\n            id: propertyCounter,\r\n            owner: msg.sender,\r\n            price: _price,\r\n            isListed: true,\r\n            isAuctionStarted: false,\r\n            auctionEndTime: 0,\r\n            highestBidder: address(0),\r\n            highestBid: 0\r\n        });\r\n\r\n        emit PropertyListed(propertyCounter, msg.sender, _price);\r\n    }\r\n\r\n    /// @dev Function to buy a listed property\r\nfunction buyProperty(uint256 _propertyId, uint256 _propertyPrice) \r\n    public \r\n    payable \r\n    isListed(_propertyId) \r\n{\r\n    Property storage property = properties[_propertyId];\r\n    require(msg.sender != property.owner, \"Owner cannot buy their own property\");\r\n    require(_propertyPrice == _propertyPrice, \"Sent value does not match the property price\");\r\n    require(_propertyPrice == property.price, \"Incorrect property price provided\");\r\n    // Transfer funds to the property owner\r\n    payable(property.owner).transfer(msg.value);\r\n\r\n    // Transfer ownership to the buyer and delist the property\r\n    address previousOwner = property.owner;\r\n    property.owner = msg.sender;\r\n    property.isListed = false;\r\n\r\n    // Emit necessary events\r\n    emit PaymentReceived(_propertyId, msg.sender, msg.value);\r\n    emit OwnershipTransferred(_propertyId, previousOwner, msg.sender);\r\n}\r\n\r\n\r\nevent DebugInfo(uint256 propertyPrice, uint256 msgValue, address owner);\r\n\r\n    /// @dev Function to change the price of a listed property\r\n    function changePrice(uint256 _propertyId, uint256 _newPrice)\r\n        public\r\n        onlyOwner(_propertyId)\r\n        isListed(_propertyId)\r\n    {\r\n        require(_newPrice > 0, \"Price must be greater than zero\");\r\n\r\n        properties[_propertyId].price = _newPrice;\r\n\r\n        emit PriceChanged(_propertyId, _newPrice);\r\n    }\r\n\r\n    /// @dev Function to start an auction\r\n    function startAuction(\r\n        uint256 _propertyId,\r\n        uint256 _startingPrice,\r\n        uint256 _duration\r\n    ) public onlyOwner(_propertyId) isListed(_propertyId) {\r\n        require(_startingPrice > 0, \"Starting price must be greater than zero\");\r\n        require(_duration > 0, \"Auction duration must be greater than zero\");\r\n\r\n        Property storage property = properties[_propertyId];\r\n        property.isAuctionStarted = true;\r\n        property.price = _startingPrice;\r\n        property.auctionEndTime = block.timestamp + _duration;\r\n\r\n        emit AuctionStarted(\r\n            _propertyId,\r\n            _startingPrice,\r\n            property.auctionEndTime\r\n        );\r\n    }\r\n\r\n\r\n    // Struct to store highest bid details\r\n    struct Bid {\r\n        uint256 amount;\r\n        address bidder;\r\n    }\r\n\r\n    mapping(uint256 => Bid) public propertyBids; // Mapping to store highest bid and bidder for each property\r\n\r\n    function bid(uint256 _propertyId, uint256 _bidPrice) public payable isAuctionStarted(_propertyId) \r\n        auctionActive(_propertyId) {\r\n        Property storage property = properties[_propertyId];\r\n\r\n        // Ensure the sender is not the owner\r\n        require(msg.sender != property.owner, \"Owner cannot place a bid\");\r\n        require(msg.sender != property.highestBidder, \"You are already the highest bidder\");\r\n\r\n        // Ensure the bid is higher than the current highest bid\r\n        require(_bidPrice > propertyBids[_propertyId].amount, \"Bid must be higher than the current highest bid\");\r\n\r\n        // Ensure the sender has sent enough funds for the bid\r\n        // require(msg.value >= _bidPrice, \"Insufficient funds sent for the bid\");\r\n\r\n        // Refund the previous highest bidder if necessary\r\n        if (propertyBids[_propertyId].bidder != address(0)) {\r\n            payable(propertyBids[_propertyId].bidder).transfer(propertyBids[_propertyId].amount);\r\n        }\r\n\r\n        property.highestBidder = msg.sender;\r\n        property.highestBid = msg.value;\r\n        \r\n        // Update the highest bid and highest bidder\r\n        propertyBids[_propertyId] = Bid({\r\n            amount: _bidPrice,\r\n            bidder: msg.sender\r\n        });\r\n\r\n        emit NewHighestBid(_propertyId, msg.sender, _bidPrice);\r\n    }\r\n\r\n    // Function to get the highest bid and the latest bidder for a property\r\n    function getHighestBid(uint256 _propertyId) public view returns (uint256, address) {\r\n        return (propertyBids[_propertyId].amount, propertyBids[_propertyId].bidder);\r\n    }\r\n\r\n\r\n    /// @dev Function to end an auction\r\n    function endAuction(uint256 _propertyId) public isAuctionStarted(_propertyId) auctionActive(_propertyId) {\r\n    Property storage property = properties[_propertyId];\r\n\r\n    // Ensure only the property owner can end the auction\r\n    require(msg.sender == property.owner, \"Only the property owner can end the auction\");\r\n\r\n    // Check if the auction time has ended\r\n    require(block.timestamp >= property.auctionEndTime, \"Auction has not ended yet\");\r\n\r\n    // Handle the case when there are no bids\r\n    if (property.highestBidder == address(0)) {\r\n        property.isListed = false; // Delist the property\r\n        emit AuctionEnded(_propertyId, address(0), 0);\r\n        return;\r\n    }\r\n\r\n    // Transfer funds to the property owner\r\n    payable(property.owner).transfer(property.highestBid);\r\n\r\n    // Transfer ownership to the highest bidder\r\n    address previousOwner = property.owner;\r\n    property.owner = property.highestBidder;\r\n\r\n    // Delist the property and mark the auction as ended\r\n    property.isListed = false;\r\n    property.highestBidder = address(0); // Reset the highest bidder\r\n    property.highestBid = 0; // Reset the highest bid\r\n\r\n    emit AuctionEnded(_propertyId, previousOwner, propertyCounter);\r\n    emit OwnershipTransferred(_propertyId, previousOwner, property.owner);\r\n}\r\n\r\n    /// @dev Function for auto price adjustment\r\n    function autoPriceAdjust(\r\n        uint256 _propertyId,\r\n        uint256 _decrement,\r\n        uint256 _interval\r\n    ) public onlyOwner(_propertyId) isListed(_propertyId) {\r\n        require(_decrement > 0, \"Decrement must be greater than zero\");\r\n        require(_interval > 0, \"Interval must be greater than zero\");\r\n\r\n        Property storage property = properties[_propertyId];\r\n        uint256 adjustedPrice = property.price - _decrement * ((block.timestamp - property.auctionEndTime) / _interval);\r\n\r\n        if (adjustedPrice > 0) {\r\n            property.price = adjustedPrice;\r\n            emit PriceChanged(_propertyId, adjustedPrice);\r\n        }\r\n    }\r\n}\r\n",
  "sourcePath": "C:\\Users\\khwae\\OneDrive\\Desktop\\CCBC 24-25\\603-Smart Contract\\Project_603\\ganache\\contracts\\EasyPropertyDeals.sol",
  "compiler": {
    "name": "solc",
    "version": "0.8.0+commit.c7dfd78e.Emscripten.clang"
  },
  "schemaVersion": "3.4.16",
  "updatedAt": "2024-12-07T00:21:27.304Z",
  "networkType": "ethereum",
  "devdoc": {
    "kind": "dev",
    "methods": {
      "autoPriceAdjust(uint256,uint256,uint256)": {
        "details": "Function for auto price adjustment"
      },
      "buyProperty(uint256,uint256)": {
        "details": "Function to buy a listed property"
      },
      "changePrice(uint256,uint256)": {
        "details": "Function to change the price of a listed property"
      },
      "endAuction(uint256)": {
        "details": "Function to end an auction"
      },
      "listProperty(uint256)": {
        "details": "Function to list a property for sale"
      },
      "startAuction(uint256,uint256,uint256)": {
        "details": "Function to start an auction"
      }
    },
    "version": 1
  },
  "userdoc": {
    "kind": "user",
    "methods": {},
    "version": 1
  }
}